:100000000C9496090C9425210C94FE200C94BE09A6
:100010000C94BE090C94BE090C94BE090C944C219E
:100020000C94BE090C94BE090C94BE090C940022D9
:100030000C94BE090C94BE090C94BE090C94BE0924
:100040000C94B4200C94BE090C94CE210C94A821DD
:100050000C94BE090C94BE090C94BE090C94BE0904
:100060000C94BE090C94BE090000007FFFE07FFFE6
:10007000E07FFFE07C03E07801E079F9E079F9E0E6
:1000800079F9E07C03E07C03E079F9E079F9E07943
:10009000F9E07801E07C03E07FFFE07FFFE07FFF95
:1000A000E00000000000007FFFE07FFFE07FFFE056
:1000B0007803E07803E07FF3E07FF3E07FE3E07F25
:1000C000C7E07F8FE07F1FE07E3FE07E7FE07E7FA6
:1000D000E07E7FE07E7FE07FFFE07FFFE0000000CA
:1000E0000000007FFFE07FFFE07FFFE07E03E07C19
:1000F00003E078FFE079FFE079FFE079FFE078073F
:10010000E07803E079F3E079F3E078E3E07803E086
:100110007C07E07FFFE07FFFE00000000000007F41
:10012000FFE07FFFE07FFFE07FFFE07C03E07C03F8
:10013000E07CFFE07CFFE07C07E07C03E07FE3E025
:100140007FF3E07FF3E07CF3E07C63E07E07E07F19
:100150000FE07FFFE00000000000007FFFE07FFF76
:10016000E07FC7E07F87E07F07E07E27E07C67E0F5
:1001700078E7E079E7E07801E07801E07FE7E07F89
:10018000E7E07FE7E07FE7E07FFFE07FFFE07FFFE2
:10019000E00000000000007FFFE07FFFE07FFFE065
:1001A0007C03E07801E078F1E079F9E07FF1E07F2D
:1001B000C3E07FC7E07FC3E07FF1E079F9E078F149
:1001C000E07801E07C03E07FFFE07FFFE0000000DB
:1001D0000000007FFFE07FFFE07F0FE07E07E07C14
:1001E00063E07CF3E07FF3E07FE3E07FC7E07F8FB5
:1001F000E07F1FE07E3FE07C7FE07C03E07C03E06B
:100200007FFFE07FFFE07FFFE00000000000007F55
:10021000FFE07FFFE07FFFE07FCFE07F8FE07F0F99
:10022000E07E0FE07E4FE07FCFE07FCFE07FCFE04A
:100230007FCFE07FCFE07FCFE07E01E07E01E07FF7
:10024000FFE07FFFE00000000000007FFFE07FEFA5
:10025000E07FCFE07C0FE0780FE0700FE0600FE010
:10026000700FE0780FE07C0FE07FCFE07FCFE07F82
:10027000CFE07FCFE07E03E07C01E07800E07FFF0D
:10028000E000000000000000000000600000F0003E
:100290000BFD0007FE00167E800E7F000FFF001F83
:1002A000FF801FFF800FFF000FFF0017FE8007FE7B
:1002B000000BFD0000F00000000000000000000046
:1002C00000000000003E5B4F5B3E3E6B4F6B3E1CF0
:1002D0003E7C3E1C183C7E3C181C577D571C1C5E07
:1002E0007F5E1C00183C1800FFE7C3E7FF001824DE
:1002F0001800FFE7DBE7FF30483A060E2629792988
:1003000026407F050507407F05253F5A3CE73C5ABC
:100310007F3E1C1C08081C1C3E7F14227F22145F99
:100320005F005F5F06097F017F006689956A6060F4
:1003300060606094A2FFA29408047E040810207EEE
:10034000201008082A1C08081C2A08081E10101073
:10035000100C1E0C1E0C30383E3830060E3E0E06B9
:10036000000000000000005F00000007000700140C
:100370007F147F14242A7F2A1223130864623649CB
:100380005620500008070300001C224100004122B3
:100390001C002A1C7F1C2A08083E080800807030B8
:1003A0000008080808080000606000201008040227
:1003B0003E5149453E00427F40007249494946212D
:1003C00041494D331814127F1027454545393C4AA1
:1003D00049493141211109073649494936464949B8
:1003E000291E000014000000403400000008142200
:1003F000411414141414004122140802015909066E
:100400003E415D594E7C1211127C7F494949363E6E
:10041000414141227F4141413E7F494949417F0954
:100420000909013E414151737F0808087F00417F5F
:1004300041002040413F017F081422417F4040405D
:10044000407F021C027F7F0408107F3E4141413EF5
:100450007F090909063E4151215E7F091929462677
:100460004949493203017F01033F4040403F1F207B
:1004700040201F3F4038403F631408146303047852
:1004800004036159494D43007F4141410204081072
:1004900020004141417F04020102044040404040AD
:1004A000000307080020545478407F28444438381B
:1004B00044444428384444287F385454541800088D
:1004C0007E090218A4A49C787F0804047800447D67
:1004D00040002040403D007F1028440000417F4004
:1004E000007C047804787C08040478384444443858
:1004F000FC1824241818242418FC7C080404084838
:100500005454542404043F44243C4040207C1C2088
:1005100040201C3C4030403C44281028444C9090E3
:10052000907C4464544C440008364100000077003D
:1005300000004136080002010204023C2623263C4A
:100540001EA1A161123A4040207A385454555921D5
:1005500055557941225454784221555478402054BD
:100560005579400C1E52721239555555593954540B
:10057000545939555454580000457C410002457D7A
:10058000420001457C407D1211127DF0282528F0A3
:100590007C545545002054547C547C0A097F4932D0
:1005A000494949323A4444443A324A4848303A4147
:1005B00041217A3A42402078009DA0A07D3D4242F0
:1005C000423D3D4040403D3C24FF2424487E494379
:1005D000662B2FFC2F2BFF0929F620C0887E0903EC
:1005E00020545479410000447D413048484A323813
:1005F0004040227A007A0A0A727D0D19317D26293F
:10060000292F28262929292630484D402038080836
:10061000080808080808382F10C8ACBA2F1028346A
:10062000FA00007B000008142A142222142A14085D
:100630005500550055AA55AA55AAFF55FF55FF006C
:100640000000FF00101010FF00141414FF00101021
:10065000FF00FF1010F010F0141414FC001414F735
:1006600000FF0000FF00FF1414F404FC1414171022
:100670001F10101F101F1414141F00101010F00072
:100680000000001F101010101F10101010F01000AC
:100690000000FF101010101010101010FF100000BC
:1006A00000FF140000FF00FF00001F10170000FCF7
:1006B00004F414141710171414F404F40000FF00C9
:1006C000F714141414141414F700F7141414171452
:1006D00010101F101F141414F4141010F010F00058
:1006E000001F101F0000001F14000000FC14000079
:1006F000F010F01010FF10FF141414FF141010105D
:100700001F00000000F010FFFFFFFFFFF0F0F0F00F
:10071000F0FFFFFF0000000000FFFF0F0F0F0F0FA3
:100720003844443844FC4A4A4A347E0202060602EF
:100730007E027E0263554941633844443C04407E56
:10074000201E2006027E020299A5E7A5991C2A49CF
:100750002A1C4C7201724C304A4D4D30304878485A
:1007600030BC625A463D3E494949007E0101017E46
:100770002A2A2A2A2A44445F444440514A44404099
:10078000444A51400000FF0103E080FF00000808D8
:100790006B6B083612362436060F090F0600001858
:1007A000180000001010003040FF0101001F01017F
:1007B0001E00191D1712003C3C3C3C0000000000CC
:1007C000EF03038002CF0300C130ED046403128104
:1007D000E803850078CB05392C003402F70120EAC4
:1007E000020000C00123C10110C5023E28C70186D6
:1007F0003601483701003A0155B1020018B6030826
:100800008227F20100260101E00F0F312B0C0E08A8
:100810004EF1370710030E0900E10F000E1403110B
:100820000731C148080F0C31360F118029800002B2
:100830005200080052000800A500080052000800FD
:1008400052000800930008005200080052000800FF
:1008500083000800520008005200080075000800DC
:1008600052000800520008007B00080083000800C6
:100870005200080052000800A500080052000800BD
:1008800052000800930008005200080052000800BF
:100890008300080052000800520008007500FEFFA7
:1008A0005200080052000800A5000800520008008D
:1008B000520008009300080052000800520008008F
:1008C000830008005200080052000800750008006C
:1008D00052000800520008007B0008008300080056
:1008E0005200080052000800A5000800520008004D
:1008F000520008009300080052000800520008004F
:100900008300080052000800520008007500FEFF36
:100910005200080052000800A5000800520008001C
:10092000520008009300080052000800520008001E
:1009300083000800520008005200080075000800FB
:1009400052000800520008007B00080083000800E5
:100950005200080052000800A500080052000800DC
:1009600052000800930008005200080052000800DE
:100970008300080052000800520008007500FEFFC6
:100980005200080052000800A500080052000800AC
:1009900052000800930008005200080052000800AE
:1009A000830008005200080052000800750008008B
:1009B00052000800520008007B0008008300080075
:1009C0005200080052000800A5000800520008006C
:1009D000520008009300080052000800520008006E
:1009E000B900F0FF9300F0FF7B00F0FFDC00F0FFA8
:1009F000B900F0FF7B00F0FF9300F0FFB900F0FFBB
:100A0000DC00F0FFB900F0FF9300F0FF7B00F0FF87
:100A10005200080052000800A5000800520008001B
:100A2000520008009300080052000800520008001D
:100A300083000800520008005200080075000800FA
:100A400052000800520008007B00080083000800E4
:100A50005200080052000800A500080052000800DB
:100A600052000800930008005200080052000800DD
:100A70008300080052000800520008007500FEFFC5
:100A80005200080052000800A500080052000800AB
:100A900052000800930008005200080052000800AD
:100AA000830008005200080052000800750008008A
:100AB00052000800520008007B0008008300080074
:100AC0005200080052000800A5000800520008006B
:100AD000520008009300080052000800520008006D
:100AE000F700F0FFC400F0FFA500F0FFC400F0FF26
:100AF000F700F0FF4A01F0FFC400F0FFF700F0FF3D
:100B00004A01F0FFF700F0FF8801F0FFEE01F0FF6F
:100B10006E0008006E000800DC0008006E0008008F
:100B20006E000800C40008006E0008006E00080097
:100B3000AF0008006E0008006E0008009C0008006E
:100B40006E0008006E000800A5000800AF00080055
:100B50006E0008006E000800DC0008006E0008004F
:100B60006E000800C40008006E0008006E00080057
:100B7000AF0008006E0008006E0008009C00FEFF39
:100B80006E0008006E000800DC0008006E0008001F
:100B90006E000800C40008006E0008006E00080027
:100BA000AF0008006E0008006E0008009C000800FE
:100BB0006E0008006E000800A5000800AF000800E5
:100BC0006E0008006E000800DC0008006E000800DF
:100BD0006E000800C40008006E0008006E000800E7
:100BE000DC00F0FFAF00F0FF9300F0FFDC00F0FF4F
:100BF000AF00F0FF9300F0FF0601F0FFDC00F0FF14
:100C0000AF00F0FFDC00F0FFAF00F0FF9300F0FF5B
:100C10005200080052000800A50008005200080019
:100C2000520008009300080052000800520008001B
:100C300083000800520008005200080075000800F8
:100C400052000800520008007B00080083000800E2
:100C50005200080052000800A500080052000800D9
:100C600052000800930008005200080052000800DB
:100C70008300080052000800520008007500FEFFC3
:100C80005200080052000800A500080052000800A9
:100C900052000800930008005200080052000800AB
:100CA0008300080052000800520008007500080088
:100CB00052000800520008007B0008008300080072
:100CC0005200080052000800A50008005200080069
:100CD000520008009300080052000800520008006B
:100CE0008300080052000800520008007500FEFF53
:100CF0008B0008008B000800150108008B0008001D
:100D00008B000800F70008008B0008008B0008002B
:100D1000DC0008008B0008008B000800C4000800FD
:100D20008B0008008B000800D0000800DC000800E1
:100D30007B0008007B000800F70008007B0008002B
:100D40007B000800DC0008007B0008007B00080036
:100D5000C40008007B0008007B000800AF00FEFF15
:100D60005200080052000800A500080052000800C8
:100D700052000800930008005200080052000800CA
:100D800083000800520008005200080075000800A7
:100D900052000800520008007B0008008300080091
:100DA0005200080052000800A50008005200080088
:100DB000520008009300080052000800520008008A
:100DC000F700F0FFC400F0FFA500F0FFC400F0FF43
:100DD000F700F0FF4A01F0FFC400F0FFF700F0FF5A
:100DE0004A01F0FFF700F0FF8801F0FFEE01F0FF8D
:100DF0005200080052000800A50008005200080038
:100E00005200080093000800520008005200080039
:100E10008300080052000800520008007500080016
:100E200052000800520008007B0008008300080000
:100E30005200080052000800A500080052000800F7
:100E400052000800930008005200080052000800F9
:100E50008300080052000800520008007500FEFFE1
:100E60005200080052000800A500080052000800C7
:100E700052000800930008005200080052000800C9
:100E800083000800520008005200080075000800A6
:100E900052000800520008007B0008008300080090
:100EA0005200080052000800A50008005200080087
:100EB0005200080093000800520008005200080089
:100EC000B900F0FF9C00F0FF7B00F0FFB900F0FFDD
:100ED0009C00F0FF7B00F0FFC400F0FF9300F0FFE8
:100EE0007B00F0FF3701F0FF9C00F0FF7B00F0FF7C
:100EF0005200080052000800A50008005200080037
:100F00005200080093000800520008005200080038
:100F10008300080052000800520008007500080015
:100F200052000800520008007B00080083000800FF
:100F30005200080052000800A500080052000800F6
:100F400052000800930008005200080052000800F8
:100F50008300080052000800520008007500FEFFE0
:100F60005200080052000800A500080052000800C6
:100F700052000800930008005200080052000800C8
:100F800083000800520008005200080075000800A5
:100F900052000800520008007B000800830008008F
:100FA0005200080052000800A50008005200080086
:100FB0005200080093000800520008005200080088
:100FC0004A01F0FFF700F0FFC400F0FF8801F0FFD6
:100FD0004A01F0FFC400F0FFF700F0FF2601F0FF28
:100FE0004A01F0FF8801F0FF4A01F0FFC400F0FF62
:100FF0005200080052000800A50008005200080036
:101000005200080093000800520008005200080037
:101010008300080052000800520008007500080014
:1010200052000800520008007B00080083000800FE
:101030005200080052000800A500080052000800F5
:1010400052000800930008005200080052000800F7
:101050008300080052000800520008007500FEFFDF
:101060006E0008006E000800DC0008006E0008003A
:101070006E000800C40008006E0008006E00080042
:10108000AF0008006E0008006E0008009C00080019
:101090006E0008006E000800A5000800AF00080000
:1010A0006E0008006E000800DC0008006E000800FA
:1010B0006E000800C40008006E0008006E00080002
:1010C000DC00F0FFAF00F0FF9300F0FFDC00F0FF6A
:1010D000AF00F0FF9300F0FF0601F0FFDC00F0FF2F
:1010E000AF00F0FFDC00F0FFAF00F0FF9300F0FF77
:1010F0005200080052000800A50008005200080035
:101100005200080093000800520008005200080036
:101110008300080052000800520008007500080013
:1011200052000800520008007B00080083000800FD
:101130005200080052000800A500080052000800F4
:1011400052000800930008005200080052000800F6
:101150008300080052000800520008007500FEFFDE
:101160005200080052000800A500080052000800C4
:1011700052000800930008005200080052000800C6
:1011800083000800520008005200080075000800A3
:1011900052000800520008007B000800830008008D
:1011A0005200080052000800A50008005200080084
:1011B0005200080093000800520008005200080086
:1011C0008300080052000800520008007500FEFF6E
:1011D0005200080052000800A50008005200080054
:1011E0005200080093000800520008005200080056
:1011F0008300080052000800520008007500080033
:1012000052000800520008007B000800830008001C
:101210005200080052000800A50008005200080013
:101220005200080093000800520008005200080015
:101230008300080052000800520008007500FEFFFD
:101240005200080052000800A500080052000800E3
:1012500052000800930008005200080052000800E5
:1012600083000800520008005200080075000800C2
:1012700052000800520008007B00080083000800AC
:101280005200080052000800A500080052000800A3
:1012900052000800930008005200080052000800A5
:1012A000F700F0FFC400F0FFA500F0FF7B00F0FFA7
:1012B000A500F0FFC400F0FF0601F0FFF700F0FF0B
:1012C000C400F0FFF700F0FFC400F0FFA500F0FF3E
:1012D00000000000240027002A000000000800028F
:1012E00001000003040700000000000000000000EF
:1012F000000023002600290001020408102040807D
:10130000010204081020010204081020000000005F
:10131000250028002B000404040404040404020231
:10132000020202020303030303032C2211241FBE43
:10133000CFEFD8E0DEBFCDBF12E0A0E0B1E0E2E049
:10134000F9E502C005900D92A430B107D9F725E068
:10135000A4E0B2E001C01D92A93BB207E1F719E099
:10136000C6E9D9E004C02197FE010E94432BC5398C
:10137000D107C9F70E9449230C947F2C0C940000DC
:10138000833081F028F4813099F08230A9F00895FB
:101390008730A9F08830C9F08430B1F480918000A2
:1013A0008F7D03C0809180008F77809380000895A7
:1013B00084B58F7784BD089584B58F7DFBCF8091F0
:1013C000B0008F778093B00008958091B0008F7D3A
:1013D000F9CFCF93DF93282F30E0F901E652FD4E8D
:1013E0008491F901E850FD4ED491F901EA5EFC4E7A
:1013F000C491CC23A1F081110E94C009EC2FF0E030
:10140000EE0FFF1FE251FD4EA591B491EC91ED233B
:1014100081E090E009F480E0DF91CF91089580E0D1
:1014200090E0FACF1F93CF93DF93282F30E0F9019C
:10143000E652FD4E8491F901E850FD4ED491F90138
:10144000EA5EFC4EC491CC23A9F0162F81110E94B4
:10145000C009EC2FF0E0EE0FFF1FE45FFC4EA591FA
:10146000B4918FB7F894EC91111108C0D095DE2398
:10147000DC938FBFDF91CF911F910895DE2BF8CFC2
:10148000CF93DF9390E0FC01E850FD4E24918A5EFB
:101490009C4EFC0184918823D1F090E0880F991F25
:1014A000FC01E053FD4EA591B491FC01E45FFC4EBC
:1014B000C591D49161110EC09FB7F8948C91E22F21
:1014C000E0958E238C932881E223E8839FBFDF91F0
:1014D000CF9108958FB7F894EC91E22BEC938FBFE6
:1014E000F6CF8E3008F08E50806480937C0080911F
:1014F0007A00806480937A0080917A0086FDFCCF28
:10150000809178009091790008953FB7F894809188
:10151000D3029091D402A091D502B091D60226B503
:10152000A89B05C02F3F19F00196A11DB11D3FBF1B
:10153000BA2FA92F982F8827BC01CD01620F711DEA
:10154000811D911D42E0660F771F881F991F4A95E4
:10155000D1F708958F929F92AF92BF92CF92DF9270
:10156000EF92FF926B017C010E94850A4B015C01A6
:10157000C114D104E104F104B9F00E94850A68198C
:1015800079098A099B09683E73408105910580F3BA
:1015900021E0C21AD108E108F10888EE880E83E044
:1015A000981EA11CB11CE4CFFF90EF90DF90CF906C
:1015B000BF90AF909F908F90089581E08093CD026F
:1015C0000895089590910C0189130BC0EFE2F8E0A3
:1015D000E4919FEF90930C01E13049F028F0E23064
:1015E00061F060E00C94120A10926E00FACF9091B4
:1015F0006F009D7F90936F00F4CF909170009D7F5E
:101600009093700091E09093B0009091B100987F1A
:1016100094609093B1001092B300E3CFAF92BF9269
:10162000CF92DF92EF92FF920F931F93CF93DF93AE
:101630006C017B018B01040F151FEB015E01AE18DD
:10164000BF08C017D10759F06991D601ED91FC91FF
:101650000190F081E02DC6010995892B79F7C5012C
:10166000DF91CF911F910F91FF90EF90DF90CF907E
:10167000BF90AF900895FC01538D448D252F30E02D
:10168000842F90E0821B930B541710F0CF9608958F
:1016900001970895FC01918D828D981761F0A28DBC
:1016A000AE0FBF2FB11D5D968C91928D9F5F9F7382
:1016B000928F90E008958FEF9FEF0895FC01918D38
:1016C000828D981731F0828DE80FF11D858D90E0A5
:1016D00008958FEF9FEF0895FC01918D228D892F42
:1016E00090E0805C9F4F821B91098F73992708952A
:1016F00087ED94E00E946C0B21E0892B09F420E037
:10170000822F089580E090E0892B29F00E94780BC9
:1017100081110C9400000895FC01A48DA80FB92F2D
:10172000B11DA35ABF4F2C91848D90E001968F7309
:101730009927848FA689B7892C93A089B1898C9128
:10174000837080648C93938D848D981306C0028877
:10175000F389E02D80818F7D80830895EF92FF9241
:101760000F931F93CF93DF93EC0181E0888F9B8DC4
:101770008C8D98131AC0E889F989808185FF15C07E
:101780009FB7F894EE89FF896083E889F9898081A1
:101790008370806480839FBF81E090E0DF91CF9170
:1017A0001F910F91FF90EF900895F62E0B8D10E092
:1017B0000F5F1F4F0F731127E02E8C8D8E110CC001
:1017C0000FB607FCFACFE889F989808185FFF5CF4C
:1017D000CE010E948C0BF1CFEB8DEC0FFD2FF11D94
:1017E000E35AFF4FF0829FB7F8940B8FEA89FB8989
:1017F00080818062CFCFCF93DF93EC01888D8823E7
:10180000B9F0AA89BB89E889F9898C9185FD03C063
:10181000808186FD0DC00FB607FCF7CF8C9185FF48
:10182000F2CF808185FFEDCFCE010E948C0BE9CFF6
:10183000DF91CF910895FC01A5A1B6A18C9192A54D
:1018400089238C93A5A1B6A18C9191A5892B8C930A
:1018500008950F931F93CF93DF93EC018B018DA914
:1018600081110DC01EBD0DB407FEFDCF0EBD0DB420
:1018700007FEFDCFDF91CF911F910F910895813029
:10188000E9F480E1E9A1FAA1908117FF14C02DA12C
:10189000922B9083EBA1FCA190812FA1922B90839E
:1018A000EBA1FCA1908128A592239083000F111F2A
:1018B000815041F7DFCF2EA19223EBCFEF8DF8A11E
:1018C0001083CE010E941B0CEF8DF8A10083CE0186
:1018D000DF91CF911F910F910C941B0CFC0185A9F6
:1018E000811105C06EBD0DB407FEFDCF0895813096
:1018F000E1F488E0A1A1B2A19C9167FF13C025A1EA
:10190000922B9C93A3A1B4A19C9127A1922B9C9371
:10191000660FA3A1B4A19C9120A592239C93815012
:1019200049F7089526A19223ECCFA78DB0A16C931F
:10193000CF010C941B0CCF93DF93EC01ED8DFE8D4A
:1019400080819CA989238083CE010E946E0CED8D3D
:10195000FE8D80819BA9892B8083DF91CF91089593
:10196000AF92BF92CF92DF92EF92FF920F931F93AD
:10197000CF93DF93EC015B016A01215031097901BA
:10198000E60EF71E01501109040F151F8091060184
:10199000909107018617970739F48091040190917F
:1019A00005018E159F05A1F06AE2CE010E949B0CF5
:1019B000B501CE010E94290CB701CE010E94290C6D
:1019C000B0920701A0920601F0920501E092040195
:1019D00080910201909103018C159D0539F480914D
:1019E00000019091010180179107A1F06BE2CE01F7
:1019F0000E949B0CB601CE010E94290CB801CE01B9
:101A00000E94290CD0920301C0920201109301019F
:101A1000009300016CE2CE01DF91CF911F910F91F5
:101A2000FF90EF90DF90CF90BF90AF900C949B0C05
:101A3000FC0185A9811104C091A182A19CBD8DBD2D
:101A400008951F93CF93DF93EC01162FE881F9815E
:101A50000284F385E02D0995112371F06DADCE015F
:101A60000E949B0CE881F9810688F789E02DCE0160
:101A7000DF91CF911F9109946EADF1CFAF92BF92DC
:101A8000CF92DF92EF92FF920F931F93CF93DF934A
:101A9000EC0177FD38C088859985681779079CF532
:101AA00057FD31C08A859B854817590764F5690140
:101AB0007A015B01E881F9810284F385E02DCE0192
:101AC0000995E881F98102A4F3A5E02D01E010E079
:101AD00021E030E0A701B501CE010995B601CE01A4
:101AE0000E94290CE881F9810688F789E02DCE0152
:101AF000DF91CF911F910F91FF90EF90DF90CF90EA
:101B0000BF90AF900994DF91CF911F910F91FF90FB
:101B1000EF90DF90CF90BF90AF9008958F929F92FB
:101B2000AF92BF92CF92DF92EF92FF920F931F93EB
:101B3000CF93DF93EC0149015701E881F98102A4B9
:101B4000F3A5E02D09959401D8010E94172B6B0194
:101B50007C01C114D104E104F10409F490C08DA901
:101B6000811115C081E0C81AD108E108F1088FEF92
:101B7000C816D806E806F80609F481C0BEBC0DB444
:101B800007FEFDCFAEBC0DB407FEFDCFEBCF81301D
:101B900009F045C081E0C81AD108E108F1088FEFCB
:101BA000C816D806E806F80609F469C09B2D88E037
:101BB000E9A1FAA1208197FF2CC03DA1232B20830E
:101BC000EBA1FCA120813FA1232B2083EBA1FCA151
:101BD000208138A523232083990F815049F79A2D1E
:101BE00088E0E9A1FAA1208197FF16C03DA1232B2F
:101BF0002083EBA1FCA120813FA1232B2083EBA11B
:101C0000FCA1208138A523232083990F815049F717
:101C1000C1CF3EA12323D3CF3EA12323E9CFBA10C6
:101C200016C0CC0CDD1CEE1CFF1CEF8DF8A1B082A1
:101C300081E0C81AD108E108F1088FEFC816D8066C
:101C4000E806F806E1F0CE010E941B0CF1CF81E01E
:101C5000C81AD108E108F1088FEFC816D806E806BF
:101C6000F80669F0EF8DF8A1B082CE010E941B0C3E
:101C7000EF8DF8A1A082CE010E941B0CE8CFDF916E
:101C8000CF911F910F91FF90EF90DF90CF90BF9079
:101C9000AF909F908F9008958F929F92AF92BF9236
:101CA000CF92DF92EF92FF920F931F93CF93DF9328
:101CB0004C01EB016A01590137FF07C0C9010196C8
:101CC000C80FD91FB194A194B108F401A085B185C2
:101CD000CA17DB070CF058C017FF07C0C8010196F0
:101CE000C80ED91E119501951109F40182859385BD
:101CF000C816D9060CF048C0FE01EA0DFB1DAF0165
:101D00004150510957FD40C0B601600F711F9B0142
:101D10002150310937FD38C0D7FF03C05F01D0E043
:101D2000C0E0D7FE03C08B01D12CC12C4A175B0742
:101D30001CF05D01AC1ABD0A281739071CF08C0194
:101D40000C191D09D401ED91FC910284F385E02D5D
:101D5000C40109959501A601BE01C4010E948E0D22
:101D6000D401ED91FC910688F789E02DC401DF9143
:101D7000CF911F910F91FF90EF90DF90CF90BF9088
:101D8000AF909F908F900994DF91CF911F910F9109
:101D9000FF90EF90DF90CF90BF90AF909F908F908B
:101DA0000895EF92FF920F931F932115310529F0AB
:101DB0000115110511F00E944C0E1F910F91FF901B
:101DC000EF9008958F929F92AF92BF92CF92DF9241
:101DD000EF92FF920F931F93CF93DF935C014B0120
:101DE0006A01E90177FD52C0DC0118968D919C9142
:101DF000681779070CF04AC0209709F447C037FFED
:101E000007C0C9010196C80ED91ED195C195D10947
:101E1000F50182859385C816D906C4F5A6014C0F35
:101E20005D1F9A012150310937FD30C0D7FE03C034
:101E3000EA01D12CC12C281739071CF0EC01CC1970
:101E4000DD09D501ED91FC910284F385E02DC501FA
:101E5000099578018E0121E030E0A601B401C501A9
:101E60000E948E0DD501ED91FC910688F789E02D39
:101E7000C501DF91CF911F910F91FF90EF90DF90FF
:101E8000CF90BF90AF909F908F900994DF91CF91AA
:101E90001F910F91FF90EF90DF90CF90BF90AF9088
:101EA0009F908F9008958F929F92AF92BF92CF9202
:101EB000DF92EF92FF920F931F93CF93DF935C011A
:101EC0006B014A01E90157FD52C0DC011A968D9160
:101ED0009C91481759070CF04AC0209709F447C055
:101EE00037FF07C0C9010196C80ED91ED195C1950B
:101EF000D109F50180859185C816D906C4F5A601DA
:101F00004C0F5D1F9A012150310937FD30C0D7FEBB
:101F100003C0EA01D12CC12C281739071CF0EC01B1
:101F2000CC19DD09D501ED91FC910284F385E02DFA
:101F3000C5010995780101E010E09E01A401B601F8
:101F4000C5010E948E0DD501ED91FC910688F7899F
:101F5000E02DC501DF91CF911F910F91FF90EF9080
:101F6000DF90CF90BF90AF909F908F900994DF91BA
:101F7000CF911F910F91FF90EF90DF90CF90BF9086
:101F8000AF909F908F900895EF92FF920F931F93C1
:101F9000CF93DF9377FD32C0DC011896ED91FC9171
:101FA0006E177F075CF52115310541F137FF07C03A
:101FB000F90131964E0F5F1F319521953109DC01F2
:101FC0001A96ED91FC914E175F07C4F4EA01C20F17
:101FD000D31FDE011197B7FD11C057FF03C09E014B
:101FE00050E040E0AE17BF071CF09F01241B350BEB
:101FF0007801890121E030E00E948E0DDF91CF91C0
:102000001F910F91FF90EF900895EF92FF920F9321
:102010001F93CF93DF9357FD31C0DC011A96ED91EA
:10202000FC914E175F0754F52115310539F137FF43
:1020300007C0F90131966E0F7F1F31952195310947
:10204000DC011896ED91FC916E177F07BCF4EB0153
:10205000C20FD31FDE011197B7FD10C077FF03C079
:102060009E0170E060E0AE17BF071CF09F01261BC9
:10207000370B780101E010E00E948E0DDF91CF91C7
:102080001F910F91FF90EF9008958F929F92AF92C2
:10209000BF92CF92DF92EF92FF920F931F93CF9355
:1020A000DF9347012115310509F44BC001151105D6
:1020B00009F447C037FF07C0F90131966E0F7F1F43
:1020C000319521953109DC011896AD90BC906A15C7
:1020D0007B05BCF517FF07C0F80131964E0F5F1F57
:1020E000119501951109DC011A96ED91FC914E179D
:1020F0005F073CF56B01C20ED31EE6012197D7FDA9
:1021000020C07A01E00EF11ED7011197B7FD19C06A
:1021100077FF03C0960170E060E057FF03C08701BE
:1021200050E040E0CA15DB051CF09501261B370B7B
:10213000AE17BF071CF08F01041B150B74010E9422
:102140008E0DDF91CF911F910F91FF90EF90DF9057
:10215000CF90BF90AF909F908F900895EF92FF9295
:102160000F931F93CF93DF93EC0177FD22C08885F7
:10217000998568177907ECF457FD1BC08A859B8504
:1021800048175907B4F47901E881F98102A4F3A54D
:10219000E02D01E010E021E030E0CE010995B7012B
:1021A000CE01DF91CF911F910F91FF90EF900C9492
:1021B000290CDF91CF911F910F91FF90EF9008951F
:1021C000CF93DF93EC010E94180D8FA987FD06C005
:1021D000EB8DFC8D80819AA989238083DF91CF913B
:1021E00008950895AF92BF92CF92DF92EF92FF923F
:1021F0000F931F93CF93DF93EC01E62E8A01A22E5B
:102200000E94180D8FA987FD06C0EB8DFC8D808183
:102210009AA989238083ED8DFE8D80819CA98923D5
:1022200080836E2DCE010E946E0CED8DFE8D80811F
:102230009BA9892B8083D12CC12CB12CCA14DB041F
:10224000E4F48DA97801823079F488A9882361F0BB
:10225000F801619171917F01CE010E94290CFFEF7D
:10226000CF1ADF0A8701EACFFFEFEF1AFF0AF80162
:102270006491CE010E946E0CF2CF8FA987FD06C03B
:10228000EB8DFC8D808199A9892B8083DF91CF9183
:102290001F910F91FF90EF90DF90CF90BF90AF9084
:1022A0000895611106C060E220E050E040E00C9427
:1022B000F21061E2F9CF0F931F93CF93DF931F9238
:1022C000CDB7DEB78C016370DC0156966C935697E0
:1022D000623009F468C0633009F46AC0613009F4FF
:1022E00056C088E4898380EF90E019969C938E9382
:1022F000189780E491E01B969C938E931A97C801DF
:102300000E94180DD801D7968C91D79787FD09C0E8
:102310005B96ED91FC915C978081D2969C9189238C
:102320008083D8015D96ED91FC915E978081D49673
:102330009C918923808366E3C8010E946E0CD801BA
:102340005D96ED91FC915E978081D3969C91D39799
:10235000892B8083D5968C91823061F16981C80187
:102360000E946E0CD801D7968C91D79787FD09C033
:102370005B96ED91FC915C978081D1969C91892B25
:1023800080830F90DF91CF911F910F91089588E284
:10239000898380E491E0F8019187808780EF90E065
:1023A00093878287ACCF88E8898380EF90E09DCFC8
:1023B00088EEEECFF80180A9882381F269817A81C5
:1023C000C8010E94290CCECFFC0187A987FD06C059
:1023D000A38DB48D9C9181A9892B8C9308957F92B4
:1023E0008F929F92AF92BF92CF92DF92EF92FF9225
:1023F0000F931F93CF93DF936C017B015A01490127
:1024000084E795E00E94E01010E000E0712CD0E03D
:10241000C0E0CE0187709927770C892B59F4FE0113
:1024200083E0F595E7958A95E1F7E00FF11FEA0D56
:10243000FB1D749077FE09C09401A701B6016C0FD3
:102440007D1F84E795E00E94AE102196C431D1052E
:1024500001F78FEFE81AF80A0D5F1F4F0C331105D3
:10246000B1F684E795E0DF91CF911F910F91FF9036
:10247000EF90DF90CF90BF90AF909F908F907F9024
:102480000C94E4112F923F924F925F926F927F9241
:102490008F929F92AF92BF92CF92DF92EF92FF9274
:1024A0000F931F93CF93DF9300D000D000D0CDB710
:1024B000DEB79C838B836B0184E795E00E94E0107C
:1024C0004B815C814550510986012BE030E06AE088
:1024D00070E084E795E00E94C40F25E0422E512C65
:1024E00022242394312CF12CE12C85E090E09E8372
:1024F0008D8386EF9FEF9A8389834CEF642E772438
:102500007A949FEFE91AF90A82E0280E311C620CD6
:10251000731C8D819E818E159F050CF45AC04C0151
:10252000880C991C9FEF891A990A86019401AB8047
:10253000BC808D819E81A81AB90AA501B701665F8A
:102540007F4F84E795E00E94C40F9401A5016AE0E3
:1025500070E06E197F0984E795E00E94C40F8D81B9
:102560009E818415950519F1AA24A394B12CAE1867
:10257000BF088B819C81A80EB91EB201665F7F4F98
:102580008601410192E0891A91089401A50184E72E
:1025900095E00E94C40F6AE070E064197509940127
:1025A000A50184E795E00E94C40F4D805E808D8177
:1025B0009E81E816F90694F477FCA3CF01979E83D9
:1025C0008D8389819A8102969A838983680E791E08
:1025D00098CF8D819E818415950531F684E795E02D
:1025E00026960FB6F894DEBF0FBECDBFDF91CF9118
:1025F0001F910F91FF90EF90DF90CF90BF90AF9021
:102600009F908F907F906F905F904F903F902F9012
:102610000C94E4110895FC016370668B84819581AC
:1026200026813781613039F0633029F091878087C6
:10263000338722870895318720879387828708957B
:102640002F923F924F925F926F927F928F929F92C2
:10265000AF92BF92CF92DF92EF92FF920F931F93B0
:10266000CF93DF93CDB7DEB76A970FB6F894DEBF8E
:102670000FBECDBF9A8F898F7A8369834A01D22E8C
:1026800018870F833701BC2CDC0159962D913C91A2
:102690005A972115310509F015C118968D919C9115
:1026A0001997681779070CF0D7C11A968D919C91EC
:1026B000481759070CF0D0C14C2C512CB6E0CB9EDA
:1026C000600D711D11247C876B87161617060CF0A0
:1026D000C3C1EA2DF0E0FA87E98793E0EE0FFF1F10
:1026E0009A95E1F7F88BEF87CF01840F951F1816A5
:1026F00019060CF0B1C1A98DBA8D58968C91811133
:1027000004C0BFEABD1508F4D394A98DBA8DED912C
:10271000FC9111970284F385E02DCD010995B5E078
:10272000DB9EC0011124E981FA81FC83EB83312C0B
:10273000212C9C0120543D4F388F2F8B4A2D50E087
:102740005E8B4D8BEF89F88DE20DF31D44919E82D7
:102750008D82D12CC12C69817A81620D731D7A8B97
:10276000698B842F90E09C8B8B8BE98DFA8DA081F7
:10277000B18140FF82C0F1E0BF126FC0AF126DC0E7
:102780001C96ED91FC912F813885A4014C0D5D1DA7
:1027900069897A89898D9A8D0995EB89FC89F595E6
:1027A000E7954E2F5FEFC51AD50A6D817E818D8921
:1027B0009E89680F791F7E836D8398E0C916D104C6
:1027C00081F6AFEF2A1A3A0AEB81FC81E40DF51D80
:1027D000FC83EB83F5E02F16310409F0B3CF2F8192
:1027E000388526153705B9F0A98DBA8DED91FC9184
:1027F000B1E0BB1257C0AB1255C069817A816B5FE3
:102800007F4F0088F189E02D830128E030E0A401AA
:10281000898D9A8D0995A98DBA8DED91FC911197AD
:102820000688F789E02DCD016A960FB6F894DEBFD1
:102830000FBECDBFDF91CF911F910F91FF90EF9011
:10284000DF90CF90BF90AF909F908F907F906F90D0
:102850005F904F903F902F9009941E96ED91FC91C0
:10286000EF80F88409851A8592014D815E816B8124
:102870007C81898D9A8D099590CF2F813885261579
:10288000370509F48ACF31E0B31207C0A31205C09F
:102890001C96ED91FC91930178CF1E96ED91FC91E1
:1028A0007301E0CF6B857C85641975090684F78513
:1028B000E02D73010F8518899201A401898D9A8DED
:1028C0000995A9CFF9013496949132974591549185
:1028D000D91AB7E0DB9E400D511D1124F901259155
:1028E00034913C8B2B8BFA0125903490FA0132966F
:1028F000749031963491398B32966490319644902D
:1029000041E04C1518F04A1508F07FC0662D062CE2
:10291000000C770B7C836B83842D042C000C990BAB
:102920009E838D83A98DBA8DED91FC9111970284C0
:10293000F385E02DCD010995512CD12CC12CEA2D28
:10294000F0E0FA87E9872B2D30E03C872B87A40144
:10295000440D511D47FC5A95588F4F8B69817A81E0
:10296000660D711D67FC7A957E876D877989C7161C
:1029700008F051CF2C2D30E04D815E81420F531F66
:10298000A985BA854A9FC0014B9F900D5A9F900D13
:102990001124FC01E80DF91DF88BEF87852D612CC2
:1029A0004F89588D420F531F5E8B4D8B671408F073
:1029B00050C044244394480E877041F4C1010196ED
:1029C000EB89FC89E20DF31DD4901C01D7FE19C0E0
:1029D000A98DBA8DED91FC91662D70E0B1E0BB122E
:1029E00019C0AB1217C02D853E85620F731F04847A
:1029F000F585E02D2F8138854D895E89898D9A8DE9
:102A00000995DD0C6394842DD1CF1E821D821C821A
:102A10001B8288CF4B815C81640F751FAB85BC85A1
:102A20006A9FC0016B9F900D7A9F900D1124698160
:102A30007A81680F791F0684F785E02DEF80F8848E
:102A400009851A859D014F855889898D9A8D09952B
:102A5000D8CF570CC3948ACF6A960FB6F894DEBFCE
:102A60000FBECDBFDF91CF911F910F91FF90EF90DF
:102A7000DF90CF90BF90AF909F908F907F906F909E
:102A80005F904F903F902F9008958F929F92AF92BA
:102A9000CF92EF92FF920F931F93CF93DF93EC01AE
:102AA000262F898D9A8D009709F051C06A30D1F494
:102AB0001D861C868D8948E0849F900111248E8597
:102AC0009F85820F931F9F878E8781E090E0DF9123
:102AD000CF911F910F91FF90EF90CF90AF909F906B
:102AE0008F9008956D3089F3CC88AD888F898823C5
:102AF000C1F08C859D8536E0C39E800D911D11240B
:102B0000488559854817590764F44E855F851D86A9
:102B10001C8638E0A39EC0011124840F951F9F8757
:102B20008E87EA88FB88088919894E855F856C85C0
:102B30007D85CE010E9420132C898C859D8546E0E1
:102B4000249F800D911D11249D878C87BECF6A30F4
:102B500069F41D861C86FC013896E4912D898E85CA
:102B60009F85E29F800D911D1124ADCF6D3009F43A
:102B7000ACCFFC0134963491631708F4A6CF32969B
:102B8000E491E61708F4A1CFFC0132968590949069
:102B9000462F431B342F47E0349F800C911C112497
:102BA000F401329634913196E4913323A9F1EE2366
:102BB00099F1CC88F4013596E491AD884F8944238E
:102BC00001F10E2E000CFF0BE30FF11DCE9EA001B4
:102BD000CF9E500D11246C857D85460F571F68854B
:102BE0007985641775076CF44E855F851D861C8694
:102BF000FC013896E491AE9E400D511D11245F8773
:102C00004E87EA88FB88088919894E855F856C851F
:102C10007D85CE010E942013F4013496E4912C8925
:102C20008C859D85E29F800D911D11248DCF6F9223
:102C30007F928F929F92AF92BF92CF92DF92EF924C
:102C4000FF920F931F93CF93DF93EC016B015A0117
:102C500039014801E881F9810284F385E02D099565
:102C6000E881F9810288F389E02D87019301A501AC
:102C7000B601CE010995A501480D591D41505109D4
:102C8000E881F9810288F389E02D9301B601CE0134
:102C90000995E881F9810088F189E02D9401A50169
:102CA000B601CE010995C60CD71CB6016150710959
:102CB000E881F9810088F189E02D9401A501CE0118
:102CC0000995E881F9810688F789E02DCE01DF9129
:102CD000CF911F910F91FF90EF90DF90CF90BF9019
:102CE000AF909F908F907F906F9009946F927F929A
:102CF0008F929F92AF92BF92CF92DF92EF92FF920C
:102D00000F931F93CF93DF935C01EB016A0149019D
:102D100038018701DC01ED91FC916217730719F509
:102D2000641675062CF0962D872D3A01C92ED82EE3
:102D30009601261937092F5F3F4F048CF58DE02D42
:102D4000A301BE01C5010995DF91CF911F910F919C
:102D5000FF90EF90DF90CF90BF90AF909F908F90BB
:102D60007F906F9008954615570591F42617370701
:102D700024F0892D4B01C22FD82F9E012819390923
:102D80002F5F3F4F068CF78DE02DA601B401DACFFF
:102D90000284F385E02D0995D501ED91FC9104881D
:102DA000F589E02D83019401A601BE01C5010995B5
:102DB000D501ED91FC910688F789E02DC501DF91E1
:102DC000CF911F910F91FF90EF90DF90CF90BF9028
:102DD000AF909F908F907F906F900994EF92FF92A9
:102DE0000F931F93DC011A960D911C911B97189657
:102DF0002D913C911997ED91FC9100A0F1A1E02D4E
:102E00007B0150E040E070E060E009951F910F9178
:102E1000FF90EF9008954F925F926F927F928F9202
:102E20009F92AF92BF92CF92DF92EF92FF920F9359
:102E30001F93CF93DF936C012B015A013901480195
:102E4000DC01ED91FC910284F385E02D0995E2010E
:102E5000640C751CD601ED91FC91C615D7055CF488
:102E60000088F189E02D87019401A501BE01C6010A
:102E700009952196EFCF0688F789E02DC601DF91ED
:102E8000CF911F910F91FF90EF90DF90CF90BF9067
:102E9000AF909F908F907F906F905F904F9009942C
:102EA0008F929F92AF92BF92CF92DF92EF92FF925A
:102EB0000F931F93CF93DF93EC015B014A016901EC
:102EC000E881F9810284F385E02D099595012C0DA7
:102ED0003D1D21503109E881F9810488F589E02DF3
:102EE00078018401A401B501CE010995E881F98139
:102EF0000688F789E02DCE01DF91CF911F910F91C8
:102F0000FF90EF90DF90CF90BF90AF909F908F9009
:102F100009948F929F92AF92BF92CF92DF92EF92DD
:102F2000FF920F931F93CF93DF93EC015B014A0154
:102F300069017801E881F9810284F385E02D099522
:102F4000C80CD91C860101501109E881F981048857
:102F5000F589E02D9501A401B501CE010995E8811F
:102F6000F9810688F789E02DCE01DF91CF911F917D
:102F70000F91FF90EF90DF90CF90BF90AF909F9018
:102F80008F9009940895EF92FF920F931F93DC01A5
:102F9000ED91FC9100A0F1A1E02D09951F910F91F9
:102FA000FF90EF9008950F931F93DC01ED91FC913A
:102FB000068CF78DE02D09951F910F9108950F93C1
:102FC0001F93DC01ED91FC91048CF58DE02D0995AA
:102FD0001F910F910895DC01ED91FC910084F18522
:102FE000E02D09942F923F924F925F926F927F92C1
:102FF0008F929F92AF92BF92CF92DF92EF92FF9209
:103000000F931F93CF93DF9300D000D000D0CDB7A4
:10301000DEB73C016A013E832D83FC82EB825801BE
:10302000A41AB50AB7FE03C0B194A194B1088D806B
:103030009E80861A970A97FE03C091948194910806
:103040008A149B045CF0902F812F0D811E819D833B
:103050008E839C2D8D2D6B01692F782F0C151D05EE
:103060005CF09D818E817E836D83692F782F902FF8
:10307000812F8601C92ED82E1601201A310A2B0164
:103080002D813E81421A530A57FE03C05194419448
:103090005108710137FE03C03FEFE31AF30AF594BC
:1030A000E7948D819E81861797075CF5A1E0B0E0DB
:1030B000BA83A983C016D1064CF1D301ED91FC91DE
:1030C0000484F585E02D2B813C81A8016D817E81F2
:1030D0008A149B041CF04D815E81B801C3010995DF
:1030E000E418F508F7FE0AC02D813E8189819A8196
:1030F000280F391F3E832D83E20CF31C0F5F1F4FF7
:10310000D9CF2FEF3FEF3A832983D4CF26960FB63E
:10311000F894DEBF0FBECDBFDF91CF911F910F910D
:10312000FF90EF90DF90CF90BF90AF909F908F90E7
:103130007F906F905F904F903F902F9008950895EB
:1031400090E080E00895CF92DF92EF92FF920F938C
:103150001F93CF9385ECC82E82E0D82EF601808194
:103160009181C4E1C89FA001C99F500D11244F5AFD
:103170005F4F82819381C89FB001C99F700D112458
:103180006F5F7F4F9FEEE92E93E0F92E02E110E092
:1031900022E130E084E795E00E941716F601808175
:1031A0009181C89FA001C99F500D11244F5A5F4FB4
:1031B00082819381C89FB001C99F700D11246F5FF8
:1031C0007F4F22E130E084E795E00E941716F60178
:1031D00080819181C89FA001C99F500D11244E5A32
:1031E0005F4F82819381C89FB001C99F700D1124E8
:1031F0006E5F7F4F20E130E084E795E00E94171674
:10320000F60180819181C89FA001C99F500D1124B2
:103210004E5A5F4F82819381C89FB001C99F700D44
:1032200011246E5F7F4F20E130E084E795E00E943B
:103230001716CF911F910F91FF90EF90DF90CF90D5
:1032400008956F927F928F929F92AF92BF92CF928A
:10325000DF92EF92FF920F931F93CF93DF9324E1BE
:10326000269F3001279F700C1124630130E5C30EA7
:10327000D11C289FE001299FD00D1124453651050E
:1032800009F4AEC088F54115510509F446C068E15E
:10329000E62E66ECF62E4436510509F4A4C0440F20
:1032A000551FFA01E95CFE4FA080B180475B5E4F7D
:1032B000FA01E080F18004E110E024E130E0A601B1
:1032C000BE0184E795E00E944C0EE12C98E7F92EB0
:1032D00024E130E0A601BE0184E795E00E941716C4
:1032E00028E136ECA50198C04636510509F4A6C080
:1032F00047365105A1F678E1E72E76ECF72E04E18A
:1033000010E024E130E0A601BE0184E795E00E94D0
:103310004C0EE12CE8E7FE2E4CC0F8E1EF2EF6EC67
:10332000FF2E04E110E024E130E0A601BE0184E7B5
:1033300095E00E944C0E530181E5A80EB11C4E0190
:10334000EFEF8E1A9E0AEE24EA94FE2C02E010E0C3
:1033500022E130E0A501B40184E795E00E944C0E23
:1033600002E110E022E030E0A501B40184E795E03D
:103370000E944C0EA3014E595F4FF12CE12C02E04C
:1033800010E022E130E0B40184E795E00E944C0EA9
:10339000BE016E5E7F4F02E110E022E030E0A50149
:1033A00084E795E00E944C0EE12CB8E7FB2E04E187
:1033B00010E024E130E0A601BE0184E795E00E9420
:1033C0001716DF91CF911F910F91FF90EF90DF9033
:1033D000CF90BF90AF909F908F907F906F90089507
:1033E000E12C58EFF52E04E110E024E130E0A601D5
:1033F000BE0184E795E00E944C0EE12C48E7F42ED4
:1034000024E130E0A601BE0184E795E00E94171692
:1034100030E020E044E852E0B601CE01DF91CF91E8
:103420001F910F91FF90EF90DF90CF90BF90AF90E2
:103430009F908F907F906F900C94EF11E12C28EF6C
:10344000F22E0BE010E024E130E0A601BE0184E79B
:1034500095E00E944C0EA301455A5F4FF12CE12CE0
:1034600008E010E024E130E0BE0184E795E00E942E
:103470004C0EE12C38E7F32E04E110E024E130E0BB
:10348000A601BE0184E795E00E94171628E136ECFC
:1034900048E452E0C1CF8F929F92AF92BF92EF92D9
:1034A000FF920F931F93CF93DF9397EDE92E93E055
:1034B000F92E10E000E0D0E0C0E0FE01EE0FFF1FAB
:1034C000EE0DFF1D40815181CE01B8010E942119EE
:1034D0002196C031D10589F70F5F1F4F80E2E80EBA
:1034E000F11C0830110539F7DF91CF911F910F9131
:1034F000FF90EF90BF90AF909F908F900895E0E382
:10350000F2E0A081B18122813381FD0184E0EE0FE0
:10351000FF1F8A95E1F7E20FF31FEE0FFF1FE9523D
:10352000FC4F40815181BD01C9010E9421190C94B9
:10353000A3184F925F926F927F92AF92BF92CF92F9
:10354000DF92EF92FF920F931F93CF93DF93CDB74C
:10355000DEB760970FB6F894DEBF0FBECDBF8FB752
:10356000F8944090CF025090D0026090D1027090B9
:10357000D2028FBF9301820140E050E0BA0149823C
:103580001A836B823C834D835E836F83788740927E
:103590000C0210930D0260920E0230930F021092F3
:1035A000100210921102109212021092130284E083
:1035B0000E94E909892B09F450C08091080290917A
:1035C0000902A0910A02B0910B028C019D0140E01A
:1035D00050E0BA0189871A87AB873C874D875E87A1
:1035E0006F87788B29813A814B815C8160E070E044
:1035F00080E090E05801CB84DC84E12CF12C00E0E9
:1036000010E00E94262B283C31054105510561053B
:1036100071058105910509F100F14092080250926F
:10362000090260920A0270920B0281E08093C90243
:1036300060960FB6F894DEBF0FBECDBFDF91CF917D
:103640001F910F91FF90EF90DF90CF90BF90AF90C0
:103650007F906F905F904F90089585E00E94E909F8
:10366000892B31F38091040290910502A09106020A
:10367000B09107028C019D01AB873C8729813A817B
:103680004B815C8160E070E080E090E05801CB8489
:10369000DC84E12CF12C00E010E00E94262B283C79
:1036A000310541055105610571058105910509F057
:1036B00008F4BECF409204025092050260920602C6
:1036C0007092070281E08093C402B2CF0E947A2CEC
:1036D000FB0101900020E9F73197AF01461B570B22
:1036E000DC01ED91FC910280F381E02D09948F9231
:1036F0009F92AF92BF92EF92FF920F931F93CF933F
:10370000DF93CDB7DEB7A1970FB6F894DEBF0FBE3B
:10371000CDBF7C01FA01CB0119A2223008F42AE0C6
:103720008E010F5D1F4F822E912CB12CA12CBF0159
:10373000A50194010E94D22AF901CA016A300CF550
:10374000605DD8016E938D01232B242B252B79F7F7
:1037500090E080E0109721F0BD01C7010E94681B36
:10376000A1960FB6F894DEBF0FBECDBFDF91CF910B
:103770001F910F91FF90EF90BF90AF909F908F900F
:103780000895695CDECFEF92FF920F931F93CF9362
:10379000DF93C7EDD2E097EDE92E93E0F92E10E02C
:1037A00000E0F801EE0FFF1FEC0FFD1F408151817B
:1037B00070E060E02AE087ED94E00E94771B6DE9FD
:1037C00071E087ED94E00E94681B0F5F1F4F00318E
:1037D000110539F76FE971E087ED94E00E94681BED
:1037E000A096EC16FD06D9F6DF91CF911F910F91AF
:1037F000FF90EF9008950F931F93CF93DF93EC0109
:103800000E94681B8C016FE971E0CE010E94681B69
:10381000800F911FDF91CF911F910F910895CF934A
:10382000DF93C4E7D5E085E08C8B8D8B8FE198EF3B
:103830009B8B8A8B998B888B8EE190E09D878C8700
:1038400084E690E09F878E8762EA71E0CE010E9455
:10385000FB1B80E098E79B8B8A8B998B888B80E29F
:1038600090E09D878C8786E690E09F878E8762EA4E
:1038700071E0CE01DF91CF910C94FB1BCF93DF93CE
:103880000E940F1CC4E7D5E084E08C8B8D8B8FE108
:1038900098EF9B8B8A8B998B888B8CE390E09D872C
:1038A0008C878CE890E09F878E876CEA71E0CE0170
:1038B0000E94FB1B80E098E79B8B8A8B998B888BFF
:1038C0008EE390E09D878C878EE890E09F878E87BF
:1038D0006CEA71E0CE01DF91CF910C94FB1BCF938A
:1038E000DF93C4E7D5E085E08C8B8D8B8FE198EF7B
:1038F0009B8B8A8B998B888B8EE190E09D878C8740
:1039000084E690E09F878E8766EB71E0CE010E948F
:10391000FB1B80E098E79B8B8A8B998B888B80E2DE
:1039200090E09D878C8786E690E09F878E8766EB88
:1039300071E0CE01DF91CF910C94FB1B2F923F924F
:103940004F925F926F927F928F929F92AF92BF92AF
:10395000CF92DF92EF92FF920F931F93CF93DF935B
:10396000CDB7DEB7C452D2400FB6F894DEBF0FBE5B
:10397000CDBFFB0104E0EE0FFF1F0A95E1F79F01A9
:10398000285C3D4F280F391FD9014C914423F9F091
:103990007C01CF018E0D9F1D880F991FFC01E952FC
:1039A000FD4F408151814436510559F589529C4F54
:1039B00025E630E0FC0131832083C70145E650E075
:1039C0000E9421190E943E1C81E08093CB02CC5DB5
:1039D000DD4F0FB6F894DEBF0FBECDBFDF91CF91A4
:1039E0001F910F91FF90EF90DF90CF90BF90AF901D
:1039F0009F908F907F906F905F904F903F902F900F
:103A000008954115510509F056C180E1E7E1F1E063
:103A1000DE01AF5EBD4F01900D928A95E1F7CE01B8
:103A20008F5F9D4F40E1E7E2F1E0DC0101900D92F4
:103A30004A95E1F77A836983FC82EB82D9011C9273
:103A40008E010F5F1F4FCC24C394D12C912C812C5D
:103A5000F801A080B180E280F3809501F4E0220FAC
:103A6000331FFA95E1F7C9018E0D9F1D880F991F2D
:103A7000FC01E952FD4F408151814115510509F08A
:103A8000EBC089529C4FE7E6F0E0DC01ED93FC933C
:103A900080910D0190910E01019790930E018093FA
:103AA0000D0147E650E0C701B5010E9421191E0132
:103AB000FFEE2F1AFDEF3F0A70E060E0D1014D915B
:103AC0005D911D014A0D5B1D48305105E0F5E1E0B7
:103AD000F2E0EC0FFD1FE60FF71F208131812E0D64
:103AE0003F1D2031310578F5CA01E4E0880F991FA8
:103AF000EA95E1F7FC01E85CFD4FE20FF31FA081BE
:103B0000AA2309F1DC01A20FB31FAA0FBB1FA95200
:103B1000BD4F8D919C910997B0F4D601AA0FBB1FA0
:103B2000AA0FBB1F81E090E08C0F9D1FA80FB91F4B
:103B300011965C934E9313963C932E93129710829A
:103B4000D60111966D016E5F7F4F6031710509F0EE
:103B5000B5CFFFEF8F1A9F0A0C5F1F4F8C149D0487
:103B60000CF476CF0E94A31840910D0150910E01E4
:103B700070E060E02AE087ED94E00E94771B6FE937
:103B800071E087ED94E00E94681B20910D01309157
:103B90000E0180911402909115022817390709F03F
:103BA00016CF81E08093CC020E946F1C84E080934A
:103BB0008805809389058FE198EF9093870580931E
:103BC000860590938505809384058CE390E090931F
:103BD0008105809380058CE890E090938305809325
:103BE000820560EC71E084E795E00E94FB1B80E0B9
:103BF00098E7909387058093860590938505809339
:103C000084058EE390E090938105809380058EE893
:103C100090E0909383058093820560EC71E084E7E7
:103C200095E0CC5DDD4F0FB6F894DEBF0FBECDBF83
:103C3000DF91CF911F910F91FF90EF90DF90CF9088
:103C4000BF90AF909F908F907F906F905F904F90BC
:103C50003F902F900C94FB1B4930510508F079CF11
:103C600089529C4FFC0151834083285C3D4FF901F0
:103C7000EE0DFF1D108280910D0190910E010197B4
:103C800090930E0180930D01CF5DDD4FB982A88224
:103C9000C152D240CD5DDD4FF982E882C352D2409D
:103CA000CF5DDD4F688179818A819B81C152D2408D
:103CB0000E9421194ECF89529C4FDC014D935C9399
:103CC000F901108280910D0190910E01019790935E
:103CD0000E0180930D01C7010E94211943CFCF929D
:103CE000DF92EF92FF920F931F93CF93DF93EC013C
:103CF0006A017B01C114D104E104F10431F4C12C47
:103D000042E1D42E4AE7E42EF12C8FA987FD07C0AB
:103D100061E00E94400A61E08FA90E94120A61E0FE
:103D200088AD0E94400A61E088AD0E94120A8DA908
:103D30008111A3C040E052E16AE770E0C416D506E5
:103D4000E606F70640F476956795579547958F5F99
:103D50008630A1F787E0982F906A969599A3809571
:103D600081708AA31BA21CA21DA21EA21FB7F894D9
:103D700080911602811127C0E0E2F3E18491E2E034
:103D8000F3E19491E82FF0E0EE0FFF1FE053FD4EBA
:103D9000A591B491EC91E92321F461E08AE00E94BD
:103DA000120A61E08AE00E94400A8CB580618CBDF5
:103DB0008CB580648CBD61E08DE00E94400A61E0BA
:103DC0008BE00E94400A809116028F5F809316025A
:103DD0001FBF8EA987FD21C061E00E94400A61E0FB
:103DE0008EA90E94120A64E670E080E090E00E94D2
:103DF000AA0A60E08EA90E94120A64E670E080E0E0
:103E000090E00E94AA0A61E08EA90E94120A68EC62
:103E100070E080E090E00E94AA0A8EA987FF0DC0A2
:103E200020E050E040E061E0CE010E94F21066E93F
:103E300070E080E090E00E94AA0A00EC17E0C80160
:103E40000196F8016491662309F463C00E5F1F4F69
:103E5000FC01F490EF2CE894E7F82E2DA801CE0198
:103E60000E94F2100E0D111DF7FEE9CF66E970E019
:103E700080E090E00E94AA0AE2CF06E113E1F12C73
:103E80008130B9F461E08AA50E94400A60E08AA509
:103E90000E94120A61E08CA50E94400A60E08CA595
:103EA0000E94120A8BA587FD94CF60E00E94400A11
:103EB00090CFF8018491E82FF0E0EE0FFF1FE45F50
:103EC000FC4E859194912F8D38A12817390741F424
:103ED00061E08F2D0E94400A60E08F2D0E94120A3F
:103EE000F3940F5F1F4FF4E1FF12E3CF61E08EA563
:103EF0000E94400A61E08EA50E94120A8FA587FDEC
:103F000068CF61E00E94400A61E08FA50E94120A1A
:103F100060CF80EF90E09987888780E491E09B876D
:103F20008A87DF91CF911F910F91FF90EF90DF90E3
:103F3000CF9008952F923F924F925F926F927F920F
:103F40008F929F92AF92BF92CF92DF92EF92FF92A9
:103F50000F931F93CF93DF93CDB7DEB7A0970FB624
:103F6000F894DEBF0FBECDBF68E372E027ED33E00B
:103F700057ED252E52E0352EA101FF24F394FB01CD
:103F800090E080E0F1928901080F191FD8011D927D
:103F90001C928A01080F191FD8011D921C920296CB
:103FA0008032910579F7605F7F4F205E3F4F405E22
:103FB0005F4FB4E0273D3B0711F70E94482A2AE0F3
:103FC00030E040E050E00E94A02A615F7F4F8F4FB9
:103FD0009F4F709315026093140210E000E038E0E8
:103FE000832E912CA12CB12C40E1442E512C612C1C
:103FF000712C80911402909115020817190720F571
:104000000E94482AA50194010E94A02A6B010E94E7
:10401000482AA30192010E94A02A94E0CC0CDD1C46
:104020009A95E1F76C0D7D1D660F771FFB01E95234
:10403000FD4F80819181892B19F784E690E091836F
:1040400080830F5F1F4FD5CF80E1E7E1F1E0DE0114
:10405000519601900D928A95E1F780E1E7E2F1E057
:10406000DE01119601900D928A95E1F730E020E093
:10407000D10150E040E08D919D9184369105E1F1B0
:104080008E010F5E1F4F70E060E07D0192E0E91A43
:10409000F108F801819191918F01820F931F88306F
:1040A000910528F5E1E0F0E0EC0FFD1FE60FF71FAA
:1040B0000190F081E02DE40FF51FE031F105B8F437
:1040C00082959295907F9827807F9827E80FF91F17
:1040D000EE0FFF1FE952FD4F8081918184369105DB
:1040E00031F4F701808191810196918380836E5F25
:1040F0007F4F6031710569F64F5F5F4F4031510569
:1041000009F0B9CF2F5F3F4FF0E22F0E311C28305E
:10411000310509F0ADCF10923102109230021092A9
:104120003302109232021092C6021092C50210920F
:10413000C8021092C702A0960FB6F894DEBF0FBE59
:10414000CDBFDF91CF911F910F91FF90EF90DF9046
:10415000CF90BF90AF909F908F907F906F905F9027
:104160004F903F902F9008951F920F920FB60F928D
:1041700011242F933F938F939F93AF93BF9380917D
:10418000CF029091D002A091D102B091D202309191
:10419000CE0223E0230F2D3758F50196A11DB11D46
:1041A0002093CE028093CF029093D002A093D102AD
:1041B000B093D2028091D3029091D402A091D50203
:1041C000B091D6020196A11DB11D8093D3029093A8
:1041D000D402A093D502B093D602BF91AF919F9124
:1041E0008F913F912F910F900FBE0F901F901895B8
:1041F00026E8230F0296A11DB11DD2CF1F920F9268
:104200000FB60F9211242F933F934F935F936F93A9
:104210007F938F939F93AF93BF93EF93FF93E0911F
:104220000A01F0910B010995FF91EF91BF91AF91B8
:104230009F918F917F916F915F914F913F912F91BE
:104240000F900FBE0F901F9018951F920F920FB6F0
:104250000F9211242F933F934F935F936F937F930C
:104260008F939F93AF93BF93EF93FF93E0910801D8
:10427000F09109010995FF91EF91BF91AF919F9145
:104280008F917F916F915F914F913F912F910F90FF
:104290000FBE0F901F9018951F920F920FB60F929E
:1042A00011242F933F934F935F936F937F938F933B
:1042B0009F93AF93BF93EF93FF9380911C029091D4
:1042C0001D02A0911E02B0911F02892B8A2B8B2BFD
:1042D000D1F190911702E0911802F09119028081BA
:1042E0008927808380911C0290911D02A0911E025B
:1042F000B0911F02181619061A061B069CF480912D
:104300001C0290911D02A0911E02B0911F02019704
:10431000A109B10980931C0290931D02A0931E0273
:10432000B0931F02FF91EF91BF91AF919F918F9139
:104330007F916F915F914F913F912F910F900FBEA1
:104340000F901F90189580910C010E94E20AEACF0D
:104350001F920F920FB60F9211242F933F934F93FA
:104360005F936F937F938F939F93AF93BF93EF93DD
:10437000FF9387ED94E00E948C0BFF91EF91BF912A
:10438000AF919F918F917F916F915F914F913F91ED
:104390002F910F900FBE0F901F9018951F920F92A4
:1043A0000FB60F9211242F938F939F93EF93FF9348
:1043B000E091E704F091E8048081E091ED04F09150
:1043C000EE0482FD1BC090818091F0048F5F8F739B
:1043D0002091F104821741F0E091F004F0E0E952FD
:1043E000FB4F958F8093F004FF91EF919F918F91F8
:1043F0002F910F900FBE0F901F9018958081F4CFD2
:104400001F920F920FB60F9211248F939F93AF9329
:10441000BF93109285001092840080910F019091BB
:104420001001A0911101B09112010197A109B109E8
:1044300080930F0190931001A0931101B09312018A
:1044400081E08093CA02BF91AF919F918F910F90AD
:104450000FBE0F901F901895E7EDF4E013821282C3
:1044600088EE93E0A0E0B0E084839583A683B783D1
:104470008FE591E09183808385EC90E09587848738
:1044800084EC90E09787868780EC90E0918B808B1E
:1044900081EC90E0938B828B82EC90E0958B848B07
:1044A00086EC90E0978B868B118E128E138E148E75
:1044B000A4E7B5E013961C921E92129720EF30E00D
:1044C00015963C932E93149780E491E017969C9355
:1044D0008E93169719963C932E9318971B969C9340
:1044E0008E931A9756961C9256971D961C921E9262
:1044F0001C971F961C921E921E9781E055968C93D6
:10450000559754968C9354972FEF3FEF53963C93C7
:104510002E93529751963C932E93509757968C9387
:10452000579758961C9258975A961C921E925997D4
:10453000D5968C93D59788E0D6968C93D6978AE0BB
:10454000D7968C93D79789E0D8968C93D897DA969C
:104550001C921E92D997DC961C921E92DB97DD96D8
:104560001C92DD97DE961C92DE971092B305109296
:10457000B4051092B5051092B6058DE09C968C930B
:104580009C978BE09A968C939A978CE09B968C9351
:104590009B97EFE1F3E1E491F0E0EE0FFF1FE45FA2
:1045A000FC4E859194915E969C938E935D97E1E08D
:1045B000F3E19491D3969C93D397E3E2F3E1E491F2
:1045C000F0E0EE0FFF1FE45FFC4E259134919496CE
:1045D0003C932E939397E5E0F3E1849197968C9327
:1045E0009797E1E2F3E1E491F0E0EE0FFF1FE45F63
:1045F000FC4E2591349192963C932E939197E3E053
:10460000F3E1249195962C939597E0E2F3E1E49100
:10461000F0E0EE0FFF1FE45FFC4E459154915C9675
:104620005C934E935B97E2E0F3E13491D1963C9337
:10463000D197E2E2F3E1E491F0E0EE0FFF1FE251E7
:10464000FD4E4591549190965C934E935F97E4E0B4
:10465000F3E1E4919996EC939997E32FE095D29644
:10466000EC93D2979095D4969C93D49780959896F6
:104670008C939897209596962C93969781E791E046
:104680008D939C938AE294E09093B8058093B7054C
:104690000895CF93DF93CDB7DEB72D970FB6F8947B
:1046A000DEBF0FBECDBF789484B5826084BD84B573
:1046B000816084BD85B5826085BD85B5816085BD1D
:1046C00080916E00816080936E00109281008091D5
:1046D000810082608093810080918100816080935D
:1046E0008100809180008160809380008091B10082
:1046F00084608093B1008091B00081608093B000AD
:1047000080917A00846080937A0080917A00826040
:1047100080937A0080917A00816080937A00809102
:104720007A00806880937A001092C100E091E704DB
:10473000F091E80482E08083E091E304F091E404E6
:104740001082E091E504F091E6048FEC80831092F2
:10475000EF04E091EB04F091EC0486E08083E091BB
:10476000E904F091EA04808180618083E091E904AA
:10477000F091EA04808188608083E091E904F091FF
:10478000EA04808180688083E091E904F091EA0482
:1047900080818F7D808381E10E94710ABC01990F25
:1047A000880B990B611571058105910511F00E9427
:1047B000972A60E084E00E94400A60E085E00E9461
:1047C000400A60E083E00E94400A89E99AE1909300
:1047D0000B0180930A01809169008C6080936900CD
:1047E000E99A60E080E00E94400A60E081E00E9477
:1047F000400A60E082E00E94400A61E082E00E949C
:10480000120A8DED9AE0909309018093080180913E
:104810006900836080936900E89A40E050E0BA0143
:1048200084E795E00E946F1E61E084E795E00E94B6
:104830005B1160E078E784E795E00E94EE16109245
:1048400081051092800510928305109282058FEFEA
:104850009FEF9093870580938605909385058093BD
:10486000840583E0809388058093890569EC71E075
:1048700084E795E00E94FB1B70E060E083E290E03B
:104880000E94421204E110E010938105009380051C
:1048900080E290E0909383058093820510928705D3
:1048A00010928605109285051092840521E02093D0
:1048B00088052093890565ED71E084E795E00E9405
:1048C000FB1B60E078EF82E390E00E9442121093BD
:1048D0008105009380058FE290E09093830580939B
:1048E000820580E098EF90938705809386059093EA
:1048F00085058093840581E08093880580938905F0
:104900006BED71E084E795E00E94FB1B6FE170E0C6
:1049100081E490E00E94421210938105009380058B
:104920008EE390E090938305809382058FE190E081
:1049300090938705809386059093850580938405E1
:1049400091E0909388059093890560EE71E084E78B
:1049500095E00E94FB1B0E949A1F66EE71E087EDB6
:1049600094E00E94FB1B0E94C31B0E944B1A0E94F2
:104970007F1AF8941092800010928100809181003B
:1049800084608093810080916F00826080936F00CB
:1049900083E294EF9093890080938800789410923A
:1049A000CD028091CD02882331F10E949A1F0E948E
:1049B0004B1A0E94A31866EE71E087ED94E00E9406
:1049C000FB1B0E94C31B1092CD028CE291E0A0E081
:1049D000B0E080930F0190931001A0931101B09368
:1049E000120180E890E090930E0180930D011092E7
:1049F000CC021092CB028091CC02882369F00E94F5
:104A00006F1C80E090E0892B61F20E94780B882374
:104A100041F20E940000C5CF8091CB02882309F4A7
:104A200049C280912A0290912B028035954024F052
:104A300010922B0210922A0200912A0210912B024E
:104A40000F5F1F4F000F111FF801E05DF74F6591D9
:104A50007491161617060CF0A3C08091B7059091BB
:104A6000B8050E94032B709329026093280260917D
:104A7000280270912902072E000C880B990B0E94C6
:104A8000812B26E636E646E65FE30E94E52B0E9490
:104A9000502B2B013C01F801E25DF74F0591149179
:104AA00080910C01863009F097C0EFE2F8E0B491F4
:104AB000BD87B7FD79C161E086E00E94400A8D851F
:104AC000882321F09D85923009F089C14801B12CDD
:104AD000A12C60E072E18AE790E0A50198010E94B4
:104AE000A02A29833A834B835C8369017A01A1E080
:104AF000CA1AD108E108F108BFEFCB16D104E104CE
:104B0000F10409F00CF428C160E472E48FE090E055
:104B1000A50198010E94A02A69017A01E1E0CE1A5C
:104B2000D108E108F1082D85223009F0C9C08FEFC6
:104B3000C816D104E104F10409F00CF40CC460E9D6
:104B400070ED83E090E0A50198010E94A02A690120
:104B50007A0191E0C91AD108E108F10883E0AFEFCA
:104B6000CA16D104E104F10409F00CF4EDC368E4C1
:104B700078EE81E090E0A50198010E94A02A6901E9
:104B80007A0181E0C81AD108E108F1089FEFC9163F
:104B9000D104E104F10411F00CF0B6C084E0D4C3F8
:104BA0006115710509F463CF719561957109809163
:104BB000B7059091B8050E94032B072E000C880BB7
:104BC000990B0E94812B20E030E040EC5FE30E94D3
:104BD000E52B0E94492B47CF8F3F09F0E5C086E0C7
:104BE00080930C01EFE2F8E024912D872F3F09F428
:104BF000DBC0213029F158F0223009F43FC08D8507
:104C000087FDD2C061E086E00E94400A5BCF14BC01
:104C100015BC84B5826084BD85B5816085BDECE13D
:104C2000F3E1E491F0E0EE0FFF1FE45FFC4E8591AD
:104C30009491EEEFF2E1E491E0931B021D863BCFED
:104C40001092800010928100809181008860809392
:104C5000810080918100816080938100ECE1F3E12B
:104C6000E491F0E0EE0FFF1FE45FFC4E859194911C
:104C7000EEEFF2E1E491E0931A021DCF1092B00042
:104C80001092B1008091B00082608093B00080915A
:104C9000B10081608093B100ECE1F3E1E491F0E0D8
:104CA000EE0FFF1FE45FFC4E8591949190931902E3
:104CB00080931802EEEFF2E1E491E0931702FBCE4D
:104CC000BFEFCB16D104E104F10409F00CF485C068
:104CD00068E478EE81E090E0A50198010E94A02AA6
:104CE00069017A01E1E0CE1AD108E108F1082D85C9
:104CF000222309F4F5C2EFEFCE16D104E104F1044A
:104D000011F00CF0F6C24ACF64E274EF80E090E05C
:104D1000A50194010E94A02A69017A0181E0C81AC4
:104D2000D108E108F10885E09FEFC916D104E1043C
:104D3000F10409F008F408C362E17AE780E090E04A
:104D4000A50194010E94A02A69017A01A1E0CA1A72
:104D5000D108E108F108DFC281E0ED85E111F4C27C
:104D600095B5987F892B85BD2FEF3FEFA9014114A1
:104D700051046104710409F05CC0ED85E13009F46F
:104D800077C0E23009F486C0E1110EC0C7BC2093A1
:104D900024023093250240932602509327028091EB
:104DA0006E00826080936E006091280270912902EB
:104DB000072E000C880B990B0E94AA0A86E00E941D
:104DC000E20A80912A0290912B02029690932B0284
:104DD00080932A020E940F1C14CE82E0BECFB12C19
:104DE000A12C60E072E18AE790E0A50198010E94A1
:104DF000A02A69017A0181E0C81AD108E108F10806
:104E0000C114D10491E0E906F1040CF591E0BD85EF
:104E1000B13009F0A9CF80918100887F892B8093E0
:104E200081002FEF3FEFA901411451046104710487
:104E3000F9F0D801AA0FBB1FA30192010E94BF2A5B
:104E400028EE33E040E050E00E94D22A96CF68E49A
:104E500078EE81E090E0A50198010E94A02A690106
:104E60007A01A1E0CA1AD108E108F10893E0CFCF96
:104E7000D0928900C09288002093200230932102B2
:104E8000409322025093230280916F0082608093AE
:104E90006F008ACFC092B30020931C0230931D0292
:104EA00040931E0250931F02809170008260809395
:104EB00070007ACF8091CA02882309F494C0E12C53
:104EC00078E7F72E04E110E020E530E04AE050E01A
:104ED00060EF70E084E795E00E944C0E80EF90E078
:104EE00090938105809380058AE090E090938305FC
:104EF0008093820582E0809388058093890580EE07
:104F00009FEF909387058093860590938505809306
:104F1000840560910F0170911001809111019091B1
:104F200012012CE330E040E050E00E94D22A6901F7
:104F30003093BB022093BA0260910F01709110016F
:104F400080911101909112012CE330E040E050E09B
:104F50000E94D22A7093B9026093B8022AE0C21666
:104F6000D10430F46FEF71E084E795E00E94681B94
:104F70004091BA025091BB0270E060E02AE084E701
:104F800095E00E94771B61E072E084E795E00E9463
:104F9000681B8091B8029091B9020A9730F46FEFC4
:104FA00071E084E795E00E94681B4091B80250913F
:104FB000B90270E060E02AE084E795E00E94771B88
:104FC00080910F0190911001A0911101B0911201F7
:104FD000892B8A2B8B2B29F481E08093CB020E94B2
:104FE0003E1C1092CA028091C9028823A1F08091D0
:104FF000C5029091C6029A878987A091C702B09195
:10500000C802BC87AB8769857A858B859C850E94A1
:105010009E1C1092C9028091C4028823E1F1209164
:10502000C5023091C6028091C7029091C802F90171
:1050300064E0EE0FFF1F6A95E1F7DF01A85CBD4F4A
:10504000A80FB91F4C91442321F1DF01A80FB91F0C
:10505000AA0FBB1FA952BC4F4D915C9111974636C8
:10506000510509F068C01D921C92E80FF91FEE0F60
:10507000FF1FE952FC4F408151813E832D83988769
:105080008F836D817E818F8198850E9421190E9476
:10509000A3181092C40280E00E94710A6C01990F5B
:1050A000EE08FF08C092C002D092C102E092C20294
:1050B000F092C30281E00E94710AAC01092E000C3B
:1050C000660B770B4093BC025093BD026093BE0207
:1050D0007093BF02B4EFCB16B1E0DB06E104F1043C
:1050E00079F5443FE1E05E076105710509F03CC1D7
:1050F000109234021092350210923602109237024A
:105100008091BC029091BD02A091BE02B091BF02FD
:10511000845F9140A109B1098D329140A105B1058B
:1051200008F06FCC10922C0210922D0210922E02D9
:1051300010922F0266CC46E650E04D935C9395CFDB
:1051400097018601045F1140210931090D32114098
:105150002105310508F401C1845F91408D329140F1
:1051600008F04FCC84EFC81681E0D806E104F104C2
:1051700070F18091C7029091C8028F3091050CF0B8
:1051800059C04091340250913502609136027091BD
:105190003702453F51406105710509F44BC020912C
:1051A000C5023091C60230933102209330029093B1
:1051B00033028093320201969093C8028093C70213
:1051C0000E947F1A85EF91E0A0E0B0E02BC08091B3
:1051D000C7029091C8021816190664F5409134026E
:1051E000509135026091360270913702443F514030
:1051F00061057105F9F02091C5023091C602309326
:10520000310220933002909333028093320201974F
:105210009093C8028093C7020E947F1A84EF91E0A6
:10522000A0E0B0E08093340290933502A093360260
:10523000B09337028091C0029091C102A091C20246
:10524000B091C302845F9140A109B1098D329140B0
:10525000A105B10508F054CF4BCF8730910554F725
:1052600040912C0250912D0260912E0270912F02DC
:10527000473F514061057105E9F22091C702309125
:10528000C80290933102809330023093330220930E
:10529000320201969093C6028093C5020E947F1A43
:1052A00087EF91E0A0E0B0E09EC084E0EFEFCE1683
:1052B000D104E104F10409F008F452CDC980DA8088
:1052C000EB80FC808AE0F594E794D794C7948A95A4
:1052D000D1F7B1E0CB1AD108E108F10885E040CD63
:1052E00083E0BFEFCB16D104E104F10409F00CF424
:1052F00037CD62E17AE780E090E0A50194010E9459
:10530000A02A69017A01A1E0CA1AD108E108F108CE
:10531000BD85BB2351F286E0AFEFCA16D104E1048C
:10532000F10491F088F0C980DA80EB80FC809AE08B
:10533000F594E794D794C7949A95D1F791E0C91A58
:10534000D108E108F10887E09091B100987F892B9E
:105350008093B10009CD82E0F7CF443F21E05207AE
:105360006105710509F466CFDB01CA01845F9140D4
:10537000A109B1098D329140A105B10508F45ACFB8
:105380008091C5029091C602443F5140610571056C
:1053900008F063CF181619060CF04CCF40912C0280
:1053A00050912D0260912E0270912F02463F514084
:1053B0006105710509F43ECF2091C7023091C80202
:1053C0009093310280933002309333022093320263
:1053D00001979093C6028093C5020E947F1A86EFC0
:1053E00091E0A0E0B0E080932C0290932D02A09376
:1053F0002E02B0932F021ECF8F929F92AF92BF9238
:10540000CF92DF92EF92FF92CF93DF93EC0168810E
:1054100079818A819B81611571058105910521F44E
:1054200064E279ED8BE597E02DE133EF41E050E068
:105430000E94A02A49015A019B01AC01A7EAB1E4EC
:105440000E94BF2A6B017C01ACEEB4EFA501940170
:105450000E94CD2AC60ED71EE81EF91EF7FE06C012
:1054600081E0C81AD108E10880E8F80AC882D98228
:10547000EA82FB82C701B6019F77DF91CF91FF904F
:10548000EF90DF90CF90BF90AF909F908F90089556
:105490008F929F92AF92BF92CF92DF92EF92FF9244
:1054A0006091130170911401809115019091160182
:1054B000611571058105910521F464E279ED8BE5B3
:1054C00097E02DE133EF41E050E00E94A02A49012E
:1054D0005A019B01AC01A7EAB1E40E94BF2A6B010B
:1054E0007C01ACEEB4EFA50194010E94CD2AC60E5A
:1054F000D71EE81EF91EF7FE06C081E0C81AD108C3
:10550000E10880E8F80AC0921301D0921401E092F9
:105510001501F0921601C701B6019F77FF90EF9039
:10552000DF90CF90BF90AF909F908F900895609341
:10553000130170931401809315019093160108953F
:10554000052E97FB1EF400940E94B72A57FD07D042
:105550000E94D22A07FC03D04EF40C94B72A50952F
:105560004095309521953F4F4F4F5F4F089590954F
:105570008095709561957F4F8F4F9F4F08950E9442
:10558000F42AA59F900DB49F900DA49F800D911DAE
:1055900011240895B7FF0C94BF2A0E94BF2A821BD2
:1055A000930B0895A1E21A2EAA1BBB1BFD010DC08F
:1055B000AA1FBB1FEE1FFF1FA217B307E407F507C3
:1055C00020F0A21BB30BE40BF50B661F771F881F9F
:1055D000991F1A9469F760957095809590959B0135
:1055E000AC01BD01CF010895A29FB001B39FC001DE
:1055F000A39F700D811D1124911DB29F700D811DFF
:105600001124911D089597FB072E16F4009407D0DE
:1056100077FD09D00E942F2B07FC05D03EF4909512
:1056200081959F4F0895709561957F4F08950E94D1
:10563000F42A332312F48A1B9B0B0C94212B0E9417
:10564000F42AB7FF0895821B930B08952A193B098A
:105650004C095D096E097F09800B910B0895AA1B07
:10566000BB1B51E107C0AA1FBB1FA617B70710F04D
:10567000A61BB70B881F991F5A95A9F7809590957F
:10568000BC01CD010895EE0FFF1F0590F491E02DB0
:1056900009940E94502B6894B1110C94DF2B08954B
:1056A0000E94C42B88F09F5798F0B92F9927B751C3
:1056B000B0F0E1F0660F771F881F991F1AF0BA95B6
:1056C000C9F714C0B13091F00E94DE2BB1E008950B
:1056D0000C94DE2B672F782F8827B85F39F0B93FFD
:1056E000CCF3869577956795B395D9F73EF4909569
:1056F0008095709561957F4F8F4F9F4F0895E894E7
:1057000009C097FB3EF490958095709561957F4F09
:105710008F4F9F4F9923A9F0F92F96E9BB279395B7
:10572000F695879577956795B795F111F8CFFAF4C7
:10573000BB0F11F460FF1BC06F5F7F4F8F4F9F4FF8
:1057400016C0882311F096E911C0772321F09EE856
:10575000872F762F05C0662371F096E8862F70E0BC
:1057600060E02AF09A95660F771F881FDAF7880F96
:105770009695879597F9089557FD9058440F551FB2
:1057800059F05F3F71F04795880F97FB991F61F0C3
:105790009F3F79F087950895121613061406551F3A
:1057A000F2CF4695F1DF08C0161617061806991FA6
:1057B000F1CF86957105610508940895E894BB279B
:1057C00066277727CB0197F908950E94F82B0C9450
:1057D000692C0E945B2C38F00E94622C20F09523EB
:1057E00011F00C94522C0C94582C11240C94DF2B97
:1057F0000E94BC2B70F3959FC1F3950F50E0551F8D
:10580000629FF001729FBB27F00DB11D639FAA2715
:10581000F00DB11DAA1F649F6627B00DA11D661F64
:10582000829F2227B00DA11D621F739FB00DA11D85
:10583000621F839FA00D611D221F749F3327A00D3F
:10584000611D231F849F600D211D822F762F6A2FDB
:1058500011249F5750409AF0F1F088234AF0EE0F40
:10586000FF1FBB1F661F771F881F91505040A9F76D
:105870009E3F510580F00C94522C0C94DF2B5F3F1F
:10588000E4F3983ED4F3869577956795B795F795A9
:10589000E7959F5FC1F7FE2B880F911D9695879521
:1058A00097F9089597F99F6780E870E060E00895A0
:1058B0009FEF80EC089500240A9416161706180628
:1058C0000906089500240A94121613061406050604
:1058D0000895092E0394000C11F4882352F0BB0F95
:1058E00040F4BF2B11F460FF04C06F5F7F4F8F4FF8
:1058F0009F4F089581E090E0F8940C947F2CF894E9
:02590000FFCFD7
:10590200FFFFFFFFFFFFFFFFE10AE10AFF80002C1C
:1059120001000001000000FFFFFFFFFFFF00000188
:1059220000010001000000FFFF0000010001000172
:10593200000000FFFFFFFF00000C02D0019401589D
:10594200011C01E000A400680018C61F00E003006B
:10595200F80F78E5AFFF0718FC007800000000AEF2
:105962000B0E0B3B0BFB0B6C0B4A0B5E0B00000090
:105972000045150E0BA0189F183E0DE010AE104505
:1059820010C40F0510F217E4115B115111E20E530E
:105992000FD10EEE16761617166F1EB00C20000DE4
:1059A2000A0047414D45204F56455200596F752018
:1059B2006C6F73742100434F4E4752415453210080
:1059C200596F7520776F6E21004D696E657377652B
:1059D2006570657200524553455400464C4147007C
:1059E200434C454152002D2D2D2D2D2D2D2D2D7445
:1059F20061626C652D2D2D2D2D2D2D2D2D2D00301F
:045A0200003A000066
:00000001FF
